{
    "contractName": "MyToken",
    "abi": [
        {
            "inputs": [
                {
                    "internalType": "uint256",
                    "name": "initialSupply",
                    "type": "uint256"
                }
            ],
            "stateMutability": "nonpayable",
            "type": "constructor"
        },
        {
            "inputs": [
                {
                    "internalType": "address",
                    "name": "",
                    "type": "address"
                }
            ],
            "name": "balanceOf",
            "outputs": [
                {
                    "internalType": "uint256",
                    "name": "",
                    "type": "uint256"
                }
            ],
            "stateMutability": "view",
            "type": "function"
        },
        {
            "inputs": [
                {
                    "internalType": "address",
                    "name": "_to",
                    "type": "address"
                },
                {
                    "internalType": "uint256",
                    "name": "_value",
                    "type": "uint256"
                }
            ],
            "name": "mint",
            "outputs": [],
            "stateMutability": "nonpayable",
            "type": "function"
        },
        {
            "inputs": [
                {
                    "internalType": "address",
                    "name": "_to",
                    "type": "address"
                },
                {
                    "internalType": "uint256",
                    "name": "_value",
                    "type": "uint256"
                }
            ],
            "name": "transfer",
            "outputs": [],
            "stateMutability": "view",
            "type": "function"
        }
    ],
    "bytecode": "608060405234801561001057600080fd5b5060405161023338038061023383398101604081905261002f91610044565b3360009081526020819052604090205561005d565b60006020828403121561005657600080fd5b5051919050565b6101c78061006c6000396000f3fe608060405234801561001057600080fd5b50600436106100415760003560e01c806340c10f191461004657806370a082311461005b578063a9059cbb1461008d575b600080fd5b61005961005436600461011f565b6100a0565b005b61007b610069366004610149565b60006020819052908152604090205481565b60405190815260200160405180910390f35b61005961009b36600461011f565b6100d1565b6001600160a01b038216600090815260208190526040812080548392906100c890849061016b565b90915550505050565b6001600160a01b0382166000908152602081905260409020546100f4828261016b565b10156100ff57600080fd5b5050565b80356001600160a01b038116811461011a57600080fd5b919050565b6000806040838503121561013257600080fd5b61013b83610103565b946020939093013593505050565b60006020828403121561015b57600080fd5b61016482610103565b9392505050565b6000821982111561018c57634e487b7160e01b600052601160045260246000fd5b50019056fea26469706673582212204d457f312b1fbf3ad6215623ac9c84f9da1e29b0a7c41057052907730615593264736f6c634300080c0033",
    "sourcePath": "c:/Projects/ethereum-template/tutorials/contract/solidity-blank/MyToken.sol",
    "compiler": {
        "name": "solc",
        "version": "0.8.12+commit.f00d7308"
    },
    "functionHashes": {
        "balanceOf(address)": "70a08231",
        "mint(address,uint256)": "40c10f19",
        "transfer(address,uint256)": "a9059cbb"
    },
    "gasEstimates": {
        "creation": {
            "codeDepositCost": "91000",
            "executionCost": "infinite",
            "totalCost": "infinite"
        },
        "external": {
            "balanceOf(address)": "2510",
            "mint(address,uint256)": "24693",
            "transfer(address,uint256)": "2632"
        }
    }
}