{
    "contractName": "MyToken",
    "abi": [
        {
            "inputs": [
                {
                    "internalType": "uint256",
                    "name": "initialSupply",
                    "type": "uint256"
                }
            ],
            "stateMutability": "nonpayable",
            "type": "constructor"
        },
        {
            "inputs": [
                {
                    "internalType": "address",
                    "name": "",
                    "type": "address"
                }
            ],
            "name": "balanceOf",
            "outputs": [
                {
                    "internalType": "uint256",
                    "name": "",
                    "type": "uint256"
                }
            ],
            "stateMutability": "view",
            "type": "function"
        },
        {
            "inputs": [
                {
                    "internalType": "address",
                    "name": "_to",
                    "type": "address"
                },
                {
                    "internalType": "uint256",
                    "name": "_value",
                    "type": "uint256"
                }
            ],
            "name": "mint",
            "outputs": [],
            "stateMutability": "nonpayable",
            "type": "function"
        },
        {
            "inputs": [
                {
                    "internalType": "address",
                    "name": "_to",
                    "type": "address"
                },
                {
                    "internalType": "uint256",
                    "name": "_value",
                    "type": "uint256"
                }
            ],
            "name": "transfer",
            "outputs": [],
            "stateMutability": "nonpayable",
            "type": "function"
        }
    ],
    "bytecode": "608060405234801561001057600080fd5b506040516102b63803806102b683398101604081905261002f91610044565b3360009081526020819052604090205561005d565b60006020828403121561005657600080fd5b5051919050565b61024a8061006c6000396000f3fe608060405234801561001057600080fd5b50600436106100415760003560e01c806340c10f191461004657806370a082311461005b578063a9059cbb1461008d575b600080fd5b610059610054366004610183565b6100a0565b005b61007b6100693660046101ad565b60006020819052908152604090205481565b60405190815260200160405180910390f35b61005961009b366004610183565b6100d1565b6001600160a01b038216600090815260208190526040812080548392906100c89084906101e5565b90915550505050565b336000908152602081905260409020548111156100ed57600080fd5b6001600160a01b03821660009081526020819052604090205461011082826101e5565b101561011b57600080fd5b336000908152602081905260408120805483929061013a9084906101fd565b90915550506001600160a01b038216600090815260208190526040812080548392906100c89084906101e5565b80356001600160a01b038116811461017e57600080fd5b919050565b6000806040838503121561019657600080fd5b61019f83610167565b946020939093013593505050565b6000602082840312156101bf57600080fd5b6101c882610167565b9392505050565b634e487b7160e01b600052601160045260246000fd5b600082198211156101f8576101f86101cf565b500190565b60008282101561020f5761020f6101cf565b50039056fea26469706673582212206e288b91943098ca96de7175c7e0d90b978e8eac2accff3be31e5ce332ab641664736f6c634300080c0033",
    "sourcePath": "c:/Projects/ethereum-template/tutorials/contract/solidity/MyToken.sol",
    "compiler": {
        "name": "solc",
        "version": "0.8.12+commit.f00d7308"
    },
    "functionHashes": {
        "balanceOf(address)": "70a08231",
        "mint(address,uint256)": "40c10f19",
        "transfer(address,uint256)": "a9059cbb"
    },
    "gasEstimates": {
        "creation": {
            "codeDepositCost": "117200",
            "executionCost": "infinite",
            "totalCost": "infinite"
        },
        "external": {
            "balanceOf(address)": "2510",
            "mint(address,uint256)": "24693",
            "transfer(address,uint256)": "infinite"
        }
    }
}