{
    "contractName": "Voting",
    "abi": [
        {
            "inputs": [
                {
                    "internalType": "bytes32[]",
                    "name": "candidateNames",
                    "type": "bytes32[]"
                }
            ],
            "stateMutability": "nonpayable",
            "type": "constructor"
        },
        {
            "inputs": [
                {
                    "internalType": "uint256",
                    "name": "",
                    "type": "uint256"
                }
            ],
            "name": "candidateList",
            "outputs": [
                {
                    "internalType": "bytes32",
                    "name": "",
                    "type": "bytes32"
                }
            ],
            "stateMutability": "view",
            "type": "function"
        },
        {
            "inputs": [],
            "name": "getAllCandidates",
            "outputs": [
                {
                    "internalType": "bytes32[]",
                    "name": "",
                    "type": "bytes32[]"
                }
            ],
            "stateMutability": "view",
            "type": "function"
        },
        {
            "inputs": [
                {
                    "internalType": "bytes32",
                    "name": "candidateName",
                    "type": "bytes32"
                }
            ],
            "name": "setCandidate",
            "outputs": [],
            "stateMutability": "nonpayable",
            "type": "function"
        },
        {
            "inputs": [
                {
                    "internalType": "bytes32",
                    "name": "candidate",
                    "type": "bytes32"
                }
            ],
            "name": "totalVotesFor",
            "outputs": [
                {
                    "internalType": "uint256",
                    "name": "",
                    "type": "uint256"
                }
            ],
            "stateMutability": "view",
            "type": "function"
        },
        {
            "inputs": [
                {
                    "internalType": "bytes32",
                    "name": "candidate",
                    "type": "bytes32"
                }
            ],
            "name": "validCandidate",
            "outputs": [
                {
                    "internalType": "bool",
                    "name": "",
                    "type": "bool"
                }
            ],
            "stateMutability": "view",
            "type": "function"
        },
        {
            "inputs": [
                {
                    "internalType": "bytes32",
                    "name": "candidate",
                    "type": "bytes32"
                }
            ],
            "name": "voteForCandidate",
            "outputs": [],
            "stateMutability": "nonpayable",
            "type": "function"
        },
        {
            "inputs": [
                {
                    "internalType": "bytes32",
                    "name": "",
                    "type": "bytes32"
                }
            ],
            "name": "votesReceived",
            "outputs": [
                {
                    "internalType": "uint256",
                    "name": "",
                    "type": "uint256"
                }
            ],
            "stateMutability": "view",
            "type": "function"
        }
    ],
    "bytecode": "608060405234801561001057600080fd5b5060405161051b38038061051b83398101604081905261002f916100bf565b8051610042906001906020840190610049565b505061017c565b828054828255906000526020600020908101928215610084579160200282015b82811115610084578251825591602001919060010190610069565b50610090929150610094565b5090565b5b808211156100905760008155600101610095565b634e487b7160e01b600052604160045260246000fd5b600060208083850312156100d257600080fd5b82516001600160401b03808211156100e957600080fd5b818501915085601f8301126100fd57600080fd5b81518181111561010f5761010f6100a9565b8060051b604051601f19603f83011681018181108582111715610134576101346100a9565b60405291825284820192508381018501918883111561015257600080fd5b938501935b8285101561017057845184529385019392850192610157565b98975050505050505050565b6103908061018b6000396000f3fe608060405234801561001057600080fd5b506004361061007d5760003560e01c80637021939f1161005b5780637021939f146100e4578063b13c744b14610104578063cc9ab26714610117578063d6042aa41461012c57600080fd5b80632e6997fe146100825780632f265cf7146100a0578063392e6678146100c1575b600080fd5b61008a61016e565b604051610097919061029e565b60405180910390f35b6100b36100ae3660046102e2565b6101c6565b604051908152602001610097565b6100d46100cf3660046102e2565b6101ed565b6040519015158152602001610097565b6100b36100f23660046102e2565b60006020819052908152604090205481565b6100b36101123660046102e2565b610244565b61012a6101253660046102e2565b610265565b005b61012a61013a3660046102e2565b6001805480820182556000919091527fb10e2d527612073b26eecdfd717e6a320cf44b4afac2b0732d9fcbe2b7fa0cf60155565b606060018054806020026020016040519081016040528092919081815260200182805480156101bc57602002820191906000526020600020905b8154815260200190600101908083116101a8575b5050505050905090565b60006101d1826101ed565b6101da57600080fd5b5060009081526020819052604090205490565b6000805b60015481101561023b57826001828154811061020f5761020f6102fb565b906000526020600020015414156102295750600192915050565b8061023381610327565b9150506101f1565b50600092915050565b6001818154811061025457600080fd5b600091825260209091200154905081565b61026e816101ed565b61027757600080fd5b6000818152602081905260408120805460019290610296908490610342565b909155505050565b6020808252825182820181905260009190848201906040850190845b818110156102d6578351835292840192918401916001016102ba565b50909695505050505050565b6000602082840312156102f457600080fd5b5035919050565b634e487b7160e01b600052603260045260246000fd5b634e487b7160e01b600052601160045260246000fd5b600060001982141561033b5761033b610311565b5060010190565b6000821982111561035557610355610311565b50019056fea2646970667358221220419aeb134912cb8849552cebee2fd126748d285c37d6d221e7d2f69f59a7e4c264736f6c634300080c0033",
    "sourcePath": "c:/Projects/ethereum-template/tutorials/contract/solidity/Voting.sol",
    "compiler": {
        "name": "solc",
        "version": "0.8.12+commit.f00d7308"
    },
    "functionHashes": {
        "candidateList(uint256)": "b13c744b",
        "getAllCandidates()": "2e6997fe",
        "setCandidate(bytes32)": "d6042aa4",
        "totalVotesFor(bytes32)": "2f265cf7",
        "validCandidate(bytes32)": "392e6678",
        "voteForCandidate(bytes32)": "cc9ab267",
        "votesReceived(bytes32)": "7021939f"
    },
    "gasEstimates": {
        "creation": {
            "codeDepositCost": "182400",
            "executionCost": "infinite",
            "totalCost": "infinite"
        },
        "external": {
            "candidateList(uint256)": "4597",
            "getAllCandidates()": "infinite",
            "setCandidate(bytes32)": "46614",
            "totalVotesFor(bytes32)": "infinite",
            "validCandidate(bytes32)": "infinite",
            "voteForCandidate(bytes32)": "infinite",
            "votesReceived(bytes32)": "2441"
        }
    }
}